{
  "_format": "hh-sol-artifact-1",
  "contractName": "GameMarketplace",
  "sourceName": "contracts/GameMarketplace.sol",
  "abi": [
    {
      "inputs": [],
      "stateMutability": "nonpayable",
      "type": "constructor"
    },
    {
      "inputs": [
        {
          "internalType": "address",
          "name": "sender",
          "type": "address"
        },
        {
          "internalType": "uint256",
          "name": "balance",
          "type": "uint256"
        },
        {
          "internalType": "uint256",
          "name": "needed",
          "type": "uint256"
        },
        {
          "internalType": "uint256",
          "name": "tokenId",
          "type": "uint256"
        }
      ],
      "name": "ERC1155InsufficientBalance",
      "type": "error"
    },
    {
      "inputs": [
        {
          "internalType": "address",
          "name": "approver",
          "type": "address"
        }
      ],
      "name": "ERC1155InvalidApprover",
      "type": "error"
    },
    {
      "inputs": [
        {
          "internalType": "uint256",
          "name": "idsLength",
          "type": "uint256"
        },
        {
          "internalType": "uint256",
          "name": "valuesLength",
          "type": "uint256"
        }
      ],
      "name": "ERC1155InvalidArrayLength",
      "type": "error"
    },
    {
      "inputs": [
        {
          "internalType": "address",
          "name": "operator",
          "type": "address"
        }
      ],
      "name": "ERC1155InvalidOperator",
      "type": "error"
    },
    {
      "inputs": [
        {
          "internalType": "address",
          "name": "receiver",
          "type": "address"
        }
      ],
      "name": "ERC1155InvalidReceiver",
      "type": "error"
    },
    {
      "inputs": [
        {
          "internalType": "address",
          "name": "sender",
          "type": "address"
        }
      ],
      "name": "ERC1155InvalidSender",
      "type": "error"
    },
    {
      "inputs": [
        {
          "internalType": "address",
          "name": "operator",
          "type": "address"
        },
        {
          "internalType": "address",
          "name": "owner",
          "type": "address"
        }
      ],
      "name": "ERC1155MissingApprovalForAll",
      "type": "error"
    },
    {
      "anonymous": false,
      "inputs": [
        {
          "indexed": true,
          "internalType": "address",
          "name": "account",
          "type": "address"
        },
        {
          "indexed": true,
          "internalType": "address",
          "name": "operator",
          "type": "address"
        },
        {
          "indexed": false,
          "internalType": "bool",
          "name": "approved",
          "type": "bool"
        }
      ],
      "name": "ApprovalForAll",
      "type": "event"
    },
    {
      "anonymous": false,
      "inputs": [
        {
          "indexed": false,
          "internalType": "string",
          "name": "accessId",
          "type": "string"
        },
        {
          "indexed": true,
          "internalType": "address",
          "name": "buyer",
          "type": "address"
        }
      ],
      "name": "NFTBought",
      "type": "event"
    },
    {
      "anonymous": false,
      "inputs": [
        {
          "indexed": false,
          "internalType": "string",
          "name": "accessId",
          "type": "string"
        },
        {
          "indexed": true,
          "internalType": "address",
          "name": "owner",
          "type": "address"
        }
      ],
      "name": "NFTPublished",
      "type": "event"
    },
    {
      "anonymous": false,
      "inputs": [
        {
          "indexed": true,
          "internalType": "address",
          "name": "operator",
          "type": "address"
        },
        {
          "indexed": true,
          "internalType": "address",
          "name": "from",
          "type": "address"
        },
        {
          "indexed": true,
          "internalType": "address",
          "name": "to",
          "type": "address"
        },
        {
          "indexed": false,
          "internalType": "uint256[]",
          "name": "ids",
          "type": "uint256[]"
        },
        {
          "indexed": false,
          "internalType": "uint256[]",
          "name": "values",
          "type": "uint256[]"
        }
      ],
      "name": "TransferBatch",
      "type": "event"
    },
    {
      "anonymous": false,
      "inputs": [
        {
          "indexed": true,
          "internalType": "address",
          "name": "operator",
          "type": "address"
        },
        {
          "indexed": true,
          "internalType": "address",
          "name": "from",
          "type": "address"
        },
        {
          "indexed": true,
          "internalType": "address",
          "name": "to",
          "type": "address"
        },
        {
          "indexed": false,
          "internalType": "uint256",
          "name": "id",
          "type": "uint256"
        },
        {
          "indexed": false,
          "internalType": "uint256",
          "name": "value",
          "type": "uint256"
        }
      ],
      "name": "TransferSingle",
      "type": "event"
    },
    {
      "anonymous": false,
      "inputs": [
        {
          "indexed": false,
          "internalType": "string",
          "name": "value",
          "type": "string"
        },
        {
          "indexed": true,
          "internalType": "uint256",
          "name": "id",
          "type": "uint256"
        }
      ],
      "name": "URI",
      "type": "event"
    },
    {
      "inputs": [],
      "name": "MAX_SUPPLY",
      "outputs": [
        {
          "internalType": "uint256",
          "name": "",
          "type": "uint256"
        }
      ],
      "stateMutability": "view",
      "type": "function"
    },
    {
      "inputs": [
        {
          "internalType": "address",
          "name": "account",
          "type": "address"
        },
        {
          "internalType": "uint256",
          "name": "id",
          "type": "uint256"
        }
      ],
      "name": "balanceOf",
      "outputs": [
        {
          "internalType": "uint256",
          "name": "",
          "type": "uint256"
        }
      ],
      "stateMutability": "view",
      "type": "function"
    },
    {
      "inputs": [
        {
          "internalType": "address[]",
          "name": "accounts",
          "type": "address[]"
        },
        {
          "internalType": "uint256[]",
          "name": "ids",
          "type": "uint256[]"
        }
      ],
      "name": "balanceOfBatch",
      "outputs": [
        {
          "internalType": "uint256[]",
          "name": "",
          "type": "uint256[]"
        }
      ],
      "stateMutability": "view",
      "type": "function"
    },
    {
      "inputs": [
        {
          "internalType": "string",
          "name": "_accessId",
          "type": "string"
        }
      ],
      "name": "buyNFT",
      "outputs": [],
      "stateMutability": "payable",
      "type": "function"
    },
    {
      "inputs": [
        {
          "internalType": "string",
          "name": "_accessId",
          "type": "string"
        }
      ],
      "name": "fetchNFTs",
      "outputs": [
        {
          "components": [
            {
              "internalType": "address",
              "name": "owner",
              "type": "address"
            },
            {
              "internalType": "uint256",
              "name": "sellingPrice",
              "type": "uint256"
            },
            {
              "internalType": "address payable",
              "name": "seller",
              "type": "address"
            },
            {
              "internalType": "uint256",
              "name": "mintedSupply",
              "type": "uint256"
            }
          ],
          "internalType": "struct GameMarketplace.NFT[]",
          "name": "",
          "type": "tuple[]"
        },
        {
          "internalType": "uint256",
          "name": "",
          "type": "uint256"
        }
      ],
      "stateMutability": "view",
      "type": "function"
    },
    {
      "inputs": [
        {
          "internalType": "string",
          "name": "_accessId",
          "type": "string"
        },
        {
          "internalType": "uint256",
          "name": "_tokenId",
          "type": "uint256"
        }
      ],
      "name": "fetchOwnerByAccessIdAndTokenId",
      "outputs": [
        {
          "internalType": "address",
          "name": "",
          "type": "address"
        }
      ],
      "stateMutability": "view",
      "type": "function"
    },
    {
      "inputs": [
        {
          "internalType": "string",
          "name": "_accessId",
          "type": "string"
        }
      ],
      "name": "fetchRemainingNFTs",
      "outputs": [
        {
          "internalType": "uint256",
          "name": "",
          "type": "uint256"
        }
      ],
      "stateMutability": "view",
      "type": "function"
    },
    {
      "inputs": [
        {
          "internalType": "string",
          "name": "_accessId",
          "type": "string"
        },
        {
          "internalType": "uint256",
          "name": "_tokenId",
          "type": "uint256"
        }
      ],
      "name": "getTokenURI",
      "outputs": [
        {
          "internalType": "string",
          "name": "",
          "type": "string"
        }
      ],
      "stateMutability": "view",
      "type": "function"
    },
    {
      "inputs": [
        {
          "internalType": "address",
          "name": "account",
          "type": "address"
        },
        {
          "internalType": "address",
          "name": "operator",
          "type": "address"
        }
      ],
      "name": "isApprovedForAll",
      "outputs": [
        {
          "internalType": "bool",
          "name": "",
          "type": "bool"
        }
      ],
      "stateMutability": "view",
      "type": "function"
    },
    {
      "inputs": [
        {
          "internalType": "string",
          "name": "",
          "type": "string"
        }
      ],
      "name": "nftsByAccessId",
      "outputs": [
        {
          "internalType": "address",
          "name": "owner",
          "type": "address"
        },
        {
          "internalType": "uint256",
          "name": "sellingPrice",
          "type": "uint256"
        },
        {
          "internalType": "address payable",
          "name": "seller",
          "type": "address"
        },
        {
          "internalType": "uint256",
          "name": "mintedSupply",
          "type": "uint256"
        }
      ],
      "stateMutability": "view",
      "type": "function"
    },
    {
      "inputs": [
        {
          "internalType": "address",
          "name": "",
          "type": "address"
        },
        {
          "internalType": "address",
          "name": "",
          "type": "address"
        },
        {
          "internalType": "uint256[]",
          "name": "",
          "type": "uint256[]"
        },
        {
          "internalType": "uint256[]",
          "name": "",
          "type": "uint256[]"
        },
        {
          "internalType": "bytes",
          "name": "",
          "type": "bytes"
        }
      ],
      "name": "onERC1155BatchReceived",
      "outputs": [
        {
          "internalType": "bytes4",
          "name": "",
          "type": "bytes4"
        }
      ],
      "stateMutability": "nonpayable",
      "type": "function"
    },
    {
      "inputs": [
        {
          "internalType": "address",
          "name": "",
          "type": "address"
        },
        {
          "internalType": "address",
          "name": "",
          "type": "address"
        },
        {
          "internalType": "uint256",
          "name": "",
          "type": "uint256"
        },
        {
          "internalType": "uint256",
          "name": "",
          "type": "uint256"
        },
        {
          "internalType": "bytes",
          "name": "",
          "type": "bytes"
        }
      ],
      "name": "onERC1155Received",
      "outputs": [
        {
          "internalType": "bytes4",
          "name": "",
          "type": "bytes4"
        }
      ],
      "stateMutability": "nonpayable",
      "type": "function"
    },
    {
      "inputs": [
        {
          "internalType": "string",
          "name": "",
          "type": "string"
        },
        {
          "internalType": "uint256",
          "name": "",
          "type": "uint256"
        }
      ],
      "name": "ownersByAccessIdAndTokenId",
      "outputs": [
        {
          "internalType": "address",
          "name": "",
          "type": "address"
        }
      ],
      "stateMutability": "view",
      "type": "function"
    },
    {
      "inputs": [
        {
          "internalType": "string",
          "name": "_accessId",
          "type": "string"
        },
        {
          "internalType": "uint256",
          "name": "_sellingPrice",
          "type": "uint256"
        },
        {
          "internalType": "string",
          "name": "_tokenURI",
          "type": "string"
        }
      ],
      "name": "publishNFT",
      "outputs": [],
      "stateMutability": "nonpayable",
      "type": "function"
    },
    {
      "inputs": [
        {
          "internalType": "string",
          "name": "",
          "type": "string"
        }
      ],
      "name": "remainingNFTs",
      "outputs": [
        {
          "internalType": "uint256",
          "name": "",
          "type": "uint256"
        }
      ],
      "stateMutability": "view",
      "type": "function"
    },
    {
      "inputs": [
        {
          "internalType": "address",
          "name": "from",
          "type": "address"
        },
        {
          "internalType": "address",
          "name": "to",
          "type": "address"
        },
        {
          "internalType": "uint256[]",
          "name": "ids",
          "type": "uint256[]"
        },
        {
          "internalType": "uint256[]",
          "name": "values",
          "type": "uint256[]"
        },
        {
          "internalType": "bytes",
          "name": "data",
          "type": "bytes"
        }
      ],
      "name": "safeBatchTransferFrom",
      "outputs": [],
      "stateMutability": "nonpayable",
      "type": "function"
    },
    {
      "inputs": [
        {
          "internalType": "address",
          "name": "from",
          "type": "address"
        },
        {
          "internalType": "address",
          "name": "to",
          "type": "address"
        },
        {
          "internalType": "uint256",
          "name": "id",
          "type": "uint256"
        },
        {
          "internalType": "uint256",
          "name": "value",
          "type": "uint256"
        },
        {
          "internalType": "bytes",
          "name": "data",
          "type": "bytes"
        }
      ],
      "name": "safeTransferFrom",
      "outputs": [],
      "stateMutability": "nonpayable",
      "type": "function"
    },
    {
      "inputs": [
        {
          "internalType": "address",
          "name": "operator",
          "type": "address"
        },
        {
          "internalType": "bool",
          "name": "approved",
          "type": "bool"
        }
      ],
      "name": "setApprovalForAll",
      "outputs": [],
      "stateMutability": "nonpayable",
      "type": "function"
    },
    {
      "inputs": [
        {
          "internalType": "bytes4",
          "name": "interfaceId",
          "type": "bytes4"
        }
      ],
      "name": "supportsInterface",
      "outputs": [
        {
          "internalType": "bool",
          "name": "",
          "type": "bool"
        }
      ],
      "stateMutability": "view",
      "type": "function"
    },
    {
      "inputs": [
        {
          "internalType": "string",
          "name": "",
          "type": "string"
        },
        {
          "internalType": "uint256",
          "name": "",
          "type": "uint256"
        }
      ],
      "name": "tokenURIs",
      "outputs": [
        {
          "internalType": "string",
          "name": "",
          "type": "string"
        }
      ],
      "stateMutability": "view",
      "type": "function"
    },
    {
      "inputs": [
        {
          "internalType": "uint256",
          "name": "",
          "type": "uint256"
        }
      ],
      "name": "uri",
      "outputs": [
        {
          "internalType": "string",
          "name": "",
          "type": "string"
        }
      ],
      "stateMutability": "view",
      "type": "function"
    }
  ],
  "bytecode": "0x60806040523480156200001157600080fd5b506040518060200160405280600081525062000033816200003a60201b60201c565b50620003b0565b80600290816200004b9190620002c9565b5050565b600081519050919050565b7f4e487b7100000000000000000000000000000000000000000000000000000000600052604160045260246000fd5b7f4e487b7100000000000000000000000000000000000000000000000000000000600052602260045260246000fd5b60006002820490506001821680620000d157607f821691505b602082108103620000e757620000e662000089565b5b50919050565b60008190508160005260206000209050919050565b60006020601f8301049050919050565b600082821b905092915050565b600060088302620001517fffffffffffffffffffffffffffffffffffffffffffffffffffffffffffffffff8262000112565b6200015d868362000112565b95508019841693508086168417925050509392505050565b6000819050919050565b6000819050919050565b6000620001aa620001a46200019e8462000175565b6200017f565b62000175565b9050919050565b6000819050919050565b620001c68362000189565b620001de620001d582620001b1565b8484546200011f565b825550505050565b600090565b620001f5620001e6565b62000202818484620001bb565b505050565b5b818110156200022a576200021e600082620001eb565b60018101905062000208565b5050565b601f82111562000279576200024381620000ed565b6200024e8462000102565b810160208510156200025e578190505b620002766200026d8562000102565b83018262000207565b50505b505050565b600082821c905092915050565b60006200029e600019846008026200027e565b1980831691505092915050565b6000620002b983836200028b565b9150826002028217905092915050565b620002d4826200004f565b67ffffffffffffffff811115620002f057620002ef6200005a565b5b620002fc8254620000b8565b620003098282856200022e565b600060209050601f8311600181146200034157600084156200032c578287015190505b620003388582620002ab565b865550620003a8565b601f1984166200035186620000ed565b60005b828110156200037b5784890151825560018201915060208501945060208101905062000354565b868310156200039b578489015162000397601f8916826200028b565b8355505b6001600288020188555050505b505050505050565b613b4380620003c06000396000f3fe6080604052600436106101295760003560e01c80635bba8024116100ab578063bc197c811161006f578063bc197c8114610456578063dec84db114610493578063e985e9c5146104d0578063ef8b97fd1461050d578063f23a6e611461054a578063f242432a1461058757610129565b80635bba80241461036d5780637580fdb6146103ab57806380ccb78f146103d45780638d01230014610411578063a22cb4651461042d57610129565b80631a2ec0c3116100f25780631a2ec0c31461025f5780632eb2c2d61461029c57806332cb6b0c146102c55780634e1273f4146102f057806351767fb51461032d57610129565b8062fdd58e1461012e57806301ffc9a71461016b5780630e89341c146101a85780630ebf1311146101e55780631510941814610222575b600080fd5b34801561013a57600080fd5b506101556004803603810190610150919061260b565b6105b0565b604051610162919061265a565b60405180910390f35b34801561017757600080fd5b50610192600480360381019061018d91906126cd565b61060a565b60405161019f9190612715565b60405180910390f35b3480156101b457600080fd5b506101cf60048036038101906101ca9190612730565b61062c565b6040516101dc91906127ed565b60405180910390f35b3480156101f157600080fd5b5061020c60048036038101906102079190612944565b6106c0565b60405161021991906127ed565b60405180910390f35b34801561022e57600080fd5b5061024960048036038101906102449190612944565b610782565b60405161025691906129af565b60405180910390f35b34801561026b57600080fd5b5061028660048036038101906102819190612944565b6107dc565b60405161029391906129af565b60405180910390f35b3480156102a857600080fd5b506102c360048036038101906102be9190612b33565b610834565b005b3480156102d157600080fd5b506102da6108dc565b6040516102e7919061265a565b60405180910390f35b3480156102fc57600080fd5b5061031760048036038101906103129190612cc5565b6108e1565b6040516103249190612dfb565b60405180910390f35b34801561033957600080fd5b50610354600480360381019061034f9190612e1d565b6109f0565b6040516103649493929190612e87565b60405180910390f35b34801561037957600080fd5b50610394600480360381019061038f9190612e1d565b610a76565b6040516103a2929190612fee565b60405180910390f35b3480156103b757600080fd5b506103d260048036038101906103cd919061301e565b610cc4565b005b3480156103e057600080fd5b506103fb60048036038101906103f69190612e1d565b610fdc565b604051610408919061265a565b60405180910390f35b61042b60048036038101906104269190612e1d565b611004565b005b34801561043957600080fd5b50610454600480360381019061044f91906130d5565b6112ff565b005b34801561046257600080fd5b5061047d60048036038101906104789190612b33565b611315565b60405161048a9190613124565b60405180910390f35b34801561049f57600080fd5b506104ba60048036038101906104b59190612944565b61132a565b6040516104c791906127ed565b60405180910390f35b3480156104dc57600080fd5b506104f760048036038101906104f2919061313f565b6113ed565b6040516105049190612715565b60405180910390f35b34801561051957600080fd5b50610534600480360381019061052f9190612e1d565b611481565b604051610541919061265a565b60405180910390f35b34801561055657600080fd5b50610571600480360381019061056c919061317f565b6114af565b60405161057e9190613124565b60405180910390f35b34801561059357600080fd5b506105ae60048036038101906105a9919061317f565b6114c4565b005b600080600083815260200190815260200160002060008473ffffffffffffffffffffffffffffffffffffffff1673ffffffffffffffffffffffffffffffffffffffff16815260200190815260200160002054905092915050565b60006106158261156c565b8061062557506106248261164e565b5b9050919050565b60606002805461063b90613245565b80601f016020809104026020016040519081016040528092919081815260200182805461066790613245565b80156106b45780601f10610689576101008083540402835291602001916106b4565b820191906000526020600020905b81548152906001019060200180831161069757829003601f168201915b50505050509050919050565b60606006836040516106d291906132b2565b9081526020016040518091039020600083815260200190815260200160002080546106fc90613245565b80601f016020809104026020016040519081016040528092919081815260200182805461072890613245565b80156107755780601f1061074a57610100808354040283529160200191610775565b820191906000526020600020905b81548152906001019060200180831161075857829003601f168201915b5050505050905092915050565b600060058360405161079491906132b2565b9081526020016040518091039020600083815260200190815260200160002060009054906101000a900473ffffffffffffffffffffffffffffffffffffffff16905092915050565b6005828051602081018201805184825260208301602085012081835280955050505050506020528060005260406000206000915091509054906101000a900473ffffffffffffffffffffffffffffffffffffffff1681565b600061083e6116c8565b90508073ffffffffffffffffffffffffffffffffffffffff168673ffffffffffffffffffffffffffffffffffffffff1614158015610883575061088186826113ed565b155b156108c75780866040517fe237d9220000000000000000000000000000000000000000000000000000000081526004016108be9291906132c9565b60405180910390fd5b6108d486868686866116d0565b505050505050565b606481565b6060815183511461092d57815183516040517f5b0599910000000000000000000000000000000000000000000000000000000081526004016109249291906132f2565b60405180910390fd5b6000835167ffffffffffffffff81111561094a57610949612819565b5b6040519080825280602002602001820160405280156109785781602001602082028036833780820191505090505b50905060005b84518110156109e5576109b561099d82876117c890919063ffffffff16565b6109b083876117dc90919063ffffffff16565b6105b0565b8282815181106109c8576109c761331b565b5b602002602001018181525050806109de90613379565b905061097e565b508091505092915050565b6003818051602081018201805184825260208301602085012081835280955050505050506000915090508060000160009054906101000a900473ffffffffffffffffffffffffffffffffffffffff16908060010154908060020160009054906101000a900473ffffffffffffffffffffffffffffffffffffffff16908060030154905084565b6060600080606467ffffffffffffffff811115610a9657610a95612819565b5b604051908082528060200260200182016040528015610acf57816020015b610abc61250f565b815260200190600190039081610ab45790505b5090506000600485604051610ae491906132b2565b908152602001604051809103902054905060008103610b0b57816000935093505050610cbf565b60005b6064811015610cb557600073ffffffffffffffffffffffffffffffffffffffff16600587604051610b3f91906132b2565b9081526020016040518091039020600083815260200190815260200160002060009054906101000a900473ffffffffffffffffffffffffffffffffffffffff1673ffffffffffffffffffffffffffffffffffffffff1614610ca257600386604051610baa91906132b2565b90815260200160405180910390206040518060800160405290816000820160009054906101000a900473ffffffffffffffffffffffffffffffffffffffff1673ffffffffffffffffffffffffffffffffffffffff1673ffffffffffffffffffffffffffffffffffffffff168152602001600182015481526020016002820160009054906101000a900473ffffffffffffffffffffffffffffffffffffffff1673ffffffffffffffffffffffffffffffffffffffff1673ffffffffffffffffffffffffffffffffffffffff168152602001600382015481525050838281518110610c9657610c9561331b565b5b60200260200101819052505b8080610cad90613379565b915050610b0e565b5081819350935050505b915091565b6000600484604051610cd691906132b2565b90815260200160405180910390205414610d25576040517f08c379a0000000000000000000000000000000000000000000000000000000008152600401610d1c90613433565b60405180910390fd5b6000606467ffffffffffffffff811115610d4257610d41612819565b5b604051908082528060200260200182016040528015610d705781602001602082028036833780820191505090505b5090506000606467ffffffffffffffff811115610d9057610d8f612819565b5b604051908082528060200260200182016040528015610dbe5781602001602082028036833780820191505090505b50905060005b6064811015610e215780838281518110610de157610de061331b565b5b6020026020010181815250506001828281518110610e0257610e0161331b565b5b6020026020010181815250508080610e1990613379565b915050610dc4565b50610e3d308383604051806020016040528060008152506117f0565b60405180608001604052803073ffffffffffffffffffffffffffffffffffffffff1681526020018581526020013373ffffffffffffffffffffffffffffffffffffffff1681526020016064815250600386604051610e9b91906132b2565b908152602001604051809103902060008201518160000160006101000a81548173ffffffffffffffffffffffffffffffffffffffff021916908373ffffffffffffffffffffffffffffffffffffffff1602179055506020820151816001015560408201518160020160006101000a81548173ffffffffffffffffffffffffffffffffffffffff021916908373ffffffffffffffffffffffffffffffffffffffff160217905550606082015181600301559050506064600486604051610f6091906132b2565b908152602001604051809103902081905550610f7d858484611876565b610f8785856118f2565b3073ffffffffffffffffffffffffffffffffffffffff167f3c64d6177126becba716cd4fcbd61cb550801a1cb2a101fe7384dcea39b3547586604051610fcd91906127ed565b60405180910390a25050505050565b6000600482604051610fee91906132b2565b9081526020016040518091039020549050919050565b600060048260405161101691906132b2565b90815260200160405180910390205411611065576040517f08c379a000000000000000000000000000000000000000000000000000000000815260040161105c906134c5565b60405180910390fd5b60038160405161107591906132b2565b9081526020016040518091039020600101543410156110c9576040517f08c379a00000000000000000000000000000000000000000000000000000000081526004016110c090613531565b60405180910390fd5b60006003826040516110db91906132b2565b908152602001604051809103902060020160009054906101000a900473ffffffffffffffffffffffffffffffffffffffff1690508073ffffffffffffffffffffffffffffffffffffffff166108fc349081150290604051600060405180830381858888f19350505050158015611155573d6000803e3d6000fd5b50600060048360405161116891906132b2565b90815260200160405180910390205460646111839190613551565b9050606481106111c8576040517f08c379a00000000000000000000000000000000000000000000000000000000081526004016111bf906135d1565b60405180910390fd5b6111e53033836001604051806020016040528060008152506119bf565b6111f0838233611aca565b60048360405161120091906132b2565b9081526020016040518091039020600081548092919061121f906135f1565b9190505550600060048460405161123691906132b2565b908152602001604051809103902054036112ac57600060038460405161125c91906132b2565b908152602001604051809103902060020160006101000a81548173ffffffffffffffffffffffffffffffffffffffff021916908373ffffffffffffffffffffffffffffffffffffffff1602179055505b3373ffffffffffffffffffffffffffffffffffffffff167f1dbdb8480d1ff03ab8e941bfd06dd073b48e81653524f372851643e1de644716846040516112f291906127ed565b60405180910390a2505050565b61131161130a6116c8565b8383611b3d565b5050565b600063bc197c8160e01b905095945050505050565b60068280516020810182018051848252602083016020850120818352809550505050505060205280600052604060002060009150915050805461136c90613245565b80601f016020809104026020016040519081016040528092919081815260200182805461139890613245565b80156113e55780601f106113ba576101008083540402835291602001916113e5565b820191906000526020600020905b8154815290600101906020018083116113c857829003601f168201915b505050505081565b6000600160008473ffffffffffffffffffffffffffffffffffffffff1673ffffffffffffffffffffffffffffffffffffffff16815260200190815260200160002060008373ffffffffffffffffffffffffffffffffffffffff1673ffffffffffffffffffffffffffffffffffffffff16815260200190815260200160002060009054906101000a900460ff16905092915050565b6004818051602081018201805184825260208301602085012081835280955050505050506000915090505481565b600063f23a6e6160e01b905095945050505050565b60006114ce6116c8565b90508073ffffffffffffffffffffffffffffffffffffffff168673ffffffffffffffffffffffffffffffffffffffff1614158015611513575061151186826113ed565b155b156115575780866040517fe237d92200000000000000000000000000000000000000000000000000000000815260040161154e9291906132c9565b60405180910390fd5b61156486868686866119bf565b505050505050565b60007fd9b67a26000000000000000000000000000000000000000000000000000000007bffffffffffffffffffffffffffffffffffffffffffffffffffffffff1916827bffffffffffffffffffffffffffffffffffffffffffffffffffffffff1916148061163757507f0e89341c000000000000000000000000000000000000000000000000000000007bffffffffffffffffffffffffffffffffffffffffffffffffffffffff1916827bffffffffffffffffffffffffffffffffffffffffffffffffffffffff1916145b80611647575061164682611cad565b5b9050919050565b60007f4e2312e0000000000000000000000000000000000000000000000000000000007bffffffffffffffffffffffffffffffffffffffffffffffffffffffff1916827bffffffffffffffffffffffffffffffffffffffffffffffffffffffff191614806116c157506116c08261156c565b5b9050919050565b600033905090565b600073ffffffffffffffffffffffffffffffffffffffff168473ffffffffffffffffffffffffffffffffffffffff16036117425760006040517f57f447ce00000000000000000000000000000000000000000000000000000000815260040161173991906129af565b60405180910390fd5b600073ffffffffffffffffffffffffffffffffffffffff168573ffffffffffffffffffffffffffffffffffffffff16036117b45760006040517f01a835140000000000000000000000000000000000000000000000000000000081526004016117ab91906129af565b60405180910390fd5b6117c18585858585611d17565b5050505050565b600060208202602084010151905092915050565b600060208202602084010151905092915050565b600073ffffffffffffffffffffffffffffffffffffffff168473ffffffffffffffffffffffffffffffffffffffff16036118625760006040517f57f447ce00000000000000000000000000000000000000000000000000000000815260040161185991906129af565b60405180910390fd5b611870600085858585611d17565b50505050565b60005b81518110156118ec578260068560405161189391906132b2565b908152602001604051809103902060008484815181106118b6576118b561331b565b5b6020026020010151815260200190815260200160002090816118d891906137c6565b5080806118e490613379565b915050611879565b50505050565b60008111611935576040517f08c379a000000000000000000000000000000000000000000000000000000000815260040161192c906138e4565b60405180910390fd5b8060038360405161194691906132b2565b9081526020016040518091039020600101819055503360038360405161196c91906132b2565b908152602001604051809103902060020160006101000a81548173ffffffffffffffffffffffffffffffffffffffff021916908373ffffffffffffffffffffffffffffffffffffffff1602179055505050565b600073ffffffffffffffffffffffffffffffffffffffff168473ffffffffffffffffffffffffffffffffffffffff1603611a315760006040517f57f447ce000000000000000000000000000000000000000000000000000000008152600401611a2891906129af565b60405180910390fd5b600073ffffffffffffffffffffffffffffffffffffffff168573ffffffffffffffffffffffffffffffffffffffff1603611aa35760006040517f01a83514000000000000000000000000000000000000000000000000000000008152600401611a9a91906129af565b60405180910390fd5b600080611ab08585611dc9565b91509150611ac18787848487611d17565b50505050505050565b80600584604051611adb91906132b2565b9081526020016040518091039020600084815260200190815260200160002060006101000a81548173ffffffffffffffffffffffffffffffffffffffff021916908373ffffffffffffffffffffffffffffffffffffffff160217905550505050565b600073ffffffffffffffffffffffffffffffffffffffff168273ffffffffffffffffffffffffffffffffffffffff1603611baf5760006040517fced3e100000000000000000000000000000000000000000000000000000000008152600401611ba691906129af565b60405180910390fd5b80600160008573ffffffffffffffffffffffffffffffffffffffff1673ffffffffffffffffffffffffffffffffffffffff16815260200190815260200160002060008473ffffffffffffffffffffffffffffffffffffffff1673ffffffffffffffffffffffffffffffffffffffff16815260200190815260200160002060006101000a81548160ff0219169083151502179055508173ffffffffffffffffffffffffffffffffffffffff168373ffffffffffffffffffffffffffffffffffffffff167f17307eab39ab6107e8899845ad3d59bd9653f200f220920489ca2b5937696c3183604051611ca09190612715565b60405180910390a3505050565b60007f01ffc9a7000000000000000000000000000000000000000000000000000000007bffffffffffffffffffffffffffffffffffffffffffffffffffffffff1916827bffffffffffffffffffffffffffffffffffffffffffffffffffffffff1916149050919050565b611d2385858585611df9565b600073ffffffffffffffffffffffffffffffffffffffff168473ffffffffffffffffffffffffffffffffffffffff1614611dc2576000611d616116c8565b90506001845103611db1576000611d826000866117dc90919063ffffffff16565b90506000611d9a6000866117dc90919063ffffffff16565b9050611daa8389898585896121a7565b5050611dc0565b611dbf81878787878761235b565b5b505b5050505050565b60608060405191506001825283602083015260408201905060018152826020820152604081016040529250929050565b8051825114611e4357815181516040517f5b059991000000000000000000000000000000000000000000000000000000008152600401611e3a9291906132f2565b60405180910390fd5b6000611e4d6116c8565b905060005b8351811015612062576000611e7082866117dc90919063ffffffff16565b90506000611e8783866117dc90919063ffffffff16565b9050600073ffffffffffffffffffffffffffffffffffffffff168873ffffffffffffffffffffffffffffffffffffffff1614611fb457600080600084815260200190815260200160002060008a73ffffffffffffffffffffffffffffffffffffffff1673ffffffffffffffffffffffffffffffffffffffff16815260200190815260200160002054905081811015611f5c57888183856040517f03dee4c5000000000000000000000000000000000000000000000000000000008152600401611f539493929190613904565b60405180910390fd5b81810360008085815260200190815260200160002060008b73ffffffffffffffffffffffffffffffffffffffff1673ffffffffffffffffffffffffffffffffffffffff16815260200190815260200160002081905550505b600073ffffffffffffffffffffffffffffffffffffffff168773ffffffffffffffffffffffffffffffffffffffff161461204f578060008084815260200190815260200160002060008973ffffffffffffffffffffffffffffffffffffffff1673ffffffffffffffffffffffffffffffffffffffff16815260200190815260200160002060008282546120479190613949565b925050819055505b50508061205b90613379565b9050611e52565b5060018351036121215760006120826000856117dc90919063ffffffff16565b9050600061209a6000856117dc90919063ffffffff16565b90508573ffffffffffffffffffffffffffffffffffffffff168773ffffffffffffffffffffffffffffffffffffffff168473ffffffffffffffffffffffffffffffffffffffff167fc3d58168c5ae7397731d063d5bbf3d657854427343f4c083240f7aacaa2d0f6285856040516121129291906132f2565b60405180910390a450506121a0565b8373ffffffffffffffffffffffffffffffffffffffff168573ffffffffffffffffffffffffffffffffffffffff168273ffffffffffffffffffffffffffffffffffffffff167f4a39dc06d4c0dbc64b70af90fd698a233a518aa5d07e595d983b8c0526c8f7fb868660405161219792919061397d565b60405180910390a45b5050505050565b60008473ffffffffffffffffffffffffffffffffffffffff163b1115612353578373ffffffffffffffffffffffffffffffffffffffff1663f23a6e6187878686866040518663ffffffff1660e01b8152600401612208959493929190613a09565b6020604051808303816000875af192505050801561224457506040513d601f19601f820116820180604052508101906122419190613a78565b60015b6122c8573d8060008114612274576040519150601f19603f3d011682016040523d82523d6000602084013e612279565b606091505b5060008151036122c057846040517f57f447ce0000000000000000000000000000000000000000000000000000000081526004016122b791906129af565b60405180910390fd5b805181602001fd5b63f23a6e6160e01b7bffffffffffffffffffffffffffffffffffffffffffffffffffffffff1916817bffffffffffffffffffffffffffffffffffffffffffffffffffffffff19161461235157846040517f57f447ce00000000000000000000000000000000000000000000000000000000815260040161234891906129af565b60405180910390fd5b505b505050505050565b60008473ffffffffffffffffffffffffffffffffffffffff163b1115612507578373ffffffffffffffffffffffffffffffffffffffff1663bc197c8187878686866040518663ffffffff1660e01b81526004016123bc959493929190613aa5565b6020604051808303816000875af19250505080156123f857506040513d601f19601f820116820180604052508101906123f59190613a78565b60015b61247c573d8060008114612428576040519150601f19603f3d011682016040523d82523d6000602084013e61242d565b606091505b50600081510361247457846040517f57f447ce00000000000000000000000000000000000000000000000000000000815260040161246b91906129af565b60405180910390fd5b805181602001fd5b63bc197c8160e01b7bffffffffffffffffffffffffffffffffffffffffffffffffffffffff1916817bffffffffffffffffffffffffffffffffffffffffffffffffffffffff19161461250557846040517f57f447ce0000000000000000000000000000000000000000000000000000000081526004016124fc91906129af565b60405180910390fd5b505b505050505050565b6040518060800160405280600073ffffffffffffffffffffffffffffffffffffffff16815260200160008152602001600073ffffffffffffffffffffffffffffffffffffffff168152602001600081525090565b6000604051905090565b600080fd5b600080fd5b600073ffffffffffffffffffffffffffffffffffffffff82169050919050565b60006125a282612577565b9050919050565b6125b281612597565b81146125bd57600080fd5b50565b6000813590506125cf816125a9565b92915050565b6000819050919050565b6125e8816125d5565b81146125f357600080fd5b50565b600081359050612605816125df565b92915050565b600080604083850312156126225761262161256d565b5b6000612630858286016125c0565b9250506020612641858286016125f6565b9150509250929050565b612654816125d5565b82525050565b600060208201905061266f600083018461264b565b92915050565b60007fffffffff0000000000000000000000000000000000000000000000000000000082169050919050565b6126aa81612675565b81146126b557600080fd5b50565b6000813590506126c7816126a1565b92915050565b6000602082840312156126e3576126e261256d565b5b60006126f1848285016126b8565b91505092915050565b60008115159050919050565b61270f816126fa565b82525050565b600060208201905061272a6000830184612706565b92915050565b6000602082840312156127465761274561256d565b5b6000612754848285016125f6565b91505092915050565b600081519050919050565b600082825260208201905092915050565b60005b8381101561279757808201518184015260208101905061277c565b60008484015250505050565b6000601f19601f8301169050919050565b60006127bf8261275d565b6127c98185612768565b93506127d9818560208601612779565b6127e2816127a3565b840191505092915050565b6000602082019050818103600083015261280781846127b4565b905092915050565b600080fd5b600080fd5b7f4e487b7100000000000000000000000000000000000000000000000000000000600052604160045260246000fd5b612851826127a3565b810181811067ffffffffffffffff821117156128705761286f612819565b5b80604052505050565b6000612883612563565b905061288f8282612848565b919050565b600067ffffffffffffffff8211156128af576128ae612819565b5b6128b8826127a3565b9050602081019050919050565b82818337600083830152505050565b60006128e76128e284612894565b612879565b90508281526020810184848401111561290357612902612814565b5b61290e8482856128c5565b509392505050565b600082601f83011261292b5761292a61280f565b5b813561293b8482602086016128d4565b91505092915050565b6000806040838503121561295b5761295a61256d565b5b600083013567ffffffffffffffff81111561297957612978612572565b5b61298585828601612916565b9250506020612996858286016125f6565b9150509250929050565b6129a981612597565b82525050565b60006020820190506129c460008301846129a0565b92915050565b600067ffffffffffffffff8211156129e5576129e4612819565b5b602082029050602081019050919050565b600080fd5b6000612a0e612a09846129ca565b612879565b90508083825260208201905060208402830185811115612a3157612a306129f6565b5b835b81811015612a5a5780612a4688826125f6565b845260208401935050602081019050612a33565b5050509392505050565b600082601f830112612a7957612a7861280f565b5b8135612a898482602086016129fb565b91505092915050565b600067ffffffffffffffff821115612aad57612aac612819565b5b612ab6826127a3565b9050602081019050919050565b6000612ad6612ad184612a92565b612879565b905082815260208101848484011115612af257612af1612814565b5b612afd8482856128c5565b509392505050565b600082601f830112612b1a57612b1961280f565b5b8135612b2a848260208601612ac3565b91505092915050565b600080600080600060a08688031215612b4f57612b4e61256d565b5b6000612b5d888289016125c0565b9550506020612b6e888289016125c0565b945050604086013567ffffffffffffffff811115612b8f57612b8e612572565b5b612b9b88828901612a64565b935050606086013567ffffffffffffffff811115612bbc57612bbb612572565b5b612bc888828901612a64565b925050608086013567ffffffffffffffff811115612be957612be8612572565b5b612bf588828901612b05565b9150509295509295909350565b600067ffffffffffffffff821115612c1d57612c1c612819565b5b602082029050602081019050919050565b6000612c41612c3c84612c02565b612879565b90508083825260208201905060208402830185811115612c6457612c636129f6565b5b835b81811015612c8d5780612c7988826125c0565b845260208401935050602081019050612c66565b5050509392505050565b600082601f830112612cac57612cab61280f565b5b8135612cbc848260208601612c2e565b91505092915050565b60008060408385031215612cdc57612cdb61256d565b5b600083013567ffffffffffffffff811115612cfa57612cf9612572565b5b612d0685828601612c97565b925050602083013567ffffffffffffffff811115612d2757612d26612572565b5b612d3385828601612a64565b9150509250929050565b600081519050919050565b600082825260208201905092915050565b6000819050602082019050919050565b612d72816125d5565b82525050565b6000612d848383612d69565b60208301905092915050565b6000602082019050919050565b6000612da882612d3d565b612db28185612d48565b9350612dbd83612d59565b8060005b83811015612dee578151612dd58882612d78565b9750612de083612d90565b925050600181019050612dc1565b5085935050505092915050565b60006020820190508181036000830152612e158184612d9d565b905092915050565b600060208284031215612e3357612e3261256d565b5b600082013567ffffffffffffffff811115612e5157612e50612572565b5b612e5d84828501612916565b91505092915050565b6000612e7182612577565b9050919050565b612e8181612e66565b82525050565b6000608082019050612e9c60008301876129a0565b612ea9602083018661264b565b612eb66040830185612e78565b612ec3606083018461264b565b95945050505050565b600081519050919050565b600082825260208201905092915050565b6000819050602082019050919050565b612f0181612597565b82525050565b612f1081612e66565b82525050565b608082016000820151612f2c6000850182612ef8565b506020820151612f3f6020850182612d69565b506040820151612f526040850182612f07565b506060820151612f656060850182612d69565b50505050565b6000612f778383612f16565b60808301905092915050565b6000602082019050919050565b6000612f9b82612ecc565b612fa58185612ed7565b9350612fb083612ee8565b8060005b83811015612fe1578151612fc88882612f6b565b9750612fd383612f83565b925050600181019050612fb4565b5085935050505092915050565b600060408201905081810360008301526130088185612f90565b9050613017602083018461264b565b9392505050565b6000806000606084860312156130375761303661256d565b5b600084013567ffffffffffffffff81111561305557613054612572565b5b61306186828701612916565b9350506020613072868287016125f6565b925050604084013567ffffffffffffffff81111561309357613092612572565b5b61309f86828701612916565b9150509250925092565b6130b2816126fa565b81146130bd57600080fd5b50565b6000813590506130cf816130a9565b92915050565b600080604083850312156130ec576130eb61256d565b5b60006130fa858286016125c0565b925050602061310b858286016130c0565b9150509250929050565b61311e81612675565b82525050565b60006020820190506131396000830184613115565b92915050565b600080604083850312156131565761315561256d565b5b6000613164858286016125c0565b9250506020613175858286016125c0565b9150509250929050565b600080600080600060a0868803121561319b5761319a61256d565b5b60006131a9888289016125c0565b95505060206131ba888289016125c0565b94505060406131cb888289016125f6565b93505060606131dc888289016125f6565b925050608086013567ffffffffffffffff8111156131fd576131fc612572565b5b61320988828901612b05565b9150509295509295909350565b7f4e487b7100000000000000000000000000000000000000000000000000000000600052602260045260246000fd5b6000600282049050600182168061325d57607f821691505b6020821081036132705761326f613216565b5b50919050565b600081905092915050565b600061328c8261275d565b6132968185613276565b93506132a6818560208601612779565b80840191505092915050565b60006132be8284613281565b915081905092915050565b60006040820190506132de60008301856129a0565b6132eb60208301846129a0565b9392505050565b6000604082019050613307600083018561264b565b613314602083018461264b565b9392505050565b7f4e487b7100000000000000000000000000000000000000000000000000000000600052603260045260246000fd5b7f4e487b7100000000000000000000000000000000000000000000000000000000600052601160045260246000fd5b6000613384826125d5565b91507fffffffffffffffffffffffffffffffffffffffffffffffffffffffffffffffff82036133b6576133b561334a565b5b600182019050919050565b7f4e46547320666f7220746869732061636365737320494420616c72656164792060008201527f6578697374000000000000000000000000000000000000000000000000000000602082015250565b600061341d602583612768565b9150613428826133c1565b604082019050919050565b6000602082019050818103600083015261344c81613410565b9050919050565b7f4e6f204e4654732072656d61696e696e6720666f72207468697320616363657360008201527f7320494400000000000000000000000000000000000000000000000000000000602082015250565b60006134af602483612768565b91506134ba82613453565b604082019050919050565b600060208201905081810360008301526134de816134a2565b9050919050565b7f496e73756666696369656e742066756e64730000000000000000000000000000600082015250565b600061351b601283612768565b9150613526826134e5565b602082019050919050565b6000602082019050818103600083015261354a8161350e565b9050919050565b600061355c826125d5565b9150613567836125d5565b925082820390508181111561357f5761357e61334a565b5b92915050565b7f416c6c204e46547320616c726561647920736f6c640000000000000000000000600082015250565b60006135bb601583612768565b91506135c682613585565b602082019050919050565b600060208201905081810360008301526135ea816135ae565b9050919050565b60006135fc826125d5565b91506000820361360f5761360e61334a565b5b600182039050919050565b60008190508160005260206000209050919050565b60006020601f8301049050919050565b600082821b905092915050565b60006008830261367c7fffffffffffffffffffffffffffffffffffffffffffffffffffffffffffffffff8261363f565b613686868361363f565b95508019841693508086168417925050509392505050565b6000819050919050565b60006136c36136be6136b9846125d5565b61369e565b6125d5565b9050919050565b6000819050919050565b6136dd836136a8565b6136f16136e9826136ca565b84845461364c565b825550505050565b600090565b6137066136f9565b6137118184846136d4565b505050565b5b818110156137355761372a6000826136fe565b600181019050613717565b5050565b601f82111561377a5761374b8161361a565b6137548461362f565b81016020851015613763578190505b61377761376f8561362f565b830182613716565b50505b505050565b600082821c905092915050565b600061379d6000198460080261377f565b1980831691505092915050565b60006137b6838361378c565b9150826002028217905092915050565b6137cf8261275d565b67ffffffffffffffff8111156137e8576137e7612819565b5b6137f28254613245565b6137fd828285613739565b600060209050601f831160018114613830576000841561381e578287015190505b61382885826137aa565b865550613890565b601f19841661383e8661361a565b60005b8281101561386657848901518255600182019150602085019450602081019050613841565b86831015613883578489015161387f601f89168261378c565b8355505b6001600288020188555050505b505050505050565b7f5072696365206d7573742062652067726561746572207468616e203000000000600082015250565b60006138ce601c83612768565b91506138d982613898565b602082019050919050565b600060208201905081810360008301526138fd816138c1565b9050919050565b600060808201905061391960008301876129a0565b613926602083018661264b565b613933604083018561264b565b613940606083018461264b565b95945050505050565b6000613954826125d5565b915061395f836125d5565b92508282019050808211156139775761397661334a565b5b92915050565b600060408201905081810360008301526139978185612d9d565b905081810360208301526139ab8184612d9d565b90509392505050565b600081519050919050565b600082825260208201905092915050565b60006139db826139b4565b6139e581856139bf565b93506139f5818560208601612779565b6139fe816127a3565b840191505092915050565b600060a082019050613a1e60008301886129a0565b613a2b60208301876129a0565b613a38604083018661264b565b613a45606083018561264b565b8181036080830152613a5781846139d0565b90509695505050505050565b600081519050613a72816126a1565b92915050565b600060208284031215613a8e57613a8d61256d565b5b6000613a9c84828501613a63565b91505092915050565b600060a082019050613aba60008301886129a0565b613ac760208301876129a0565b8181036040830152613ad98186612d9d565b90508181036060830152613aed8185612d9d565b90508181036080830152613b0181846139d0565b9050969550505050505056fea26469706673582212202dbfd844f30f8704a397da3e0ce1cc427c9f31d46f6233f8a1780efb9289460364736f6c63430008140033",
  "linkReferences": {},
  "deployedLinkReferences": {}
}